:100000000C9446000C9465000C9465000C946500FB
:100010000C9465000C9465000C9465000C946500CC
:100020000C9465000C9465000C9465000C946500BC
:100030000C9465000C9465000C9465000C946500AC
:100040000C9465000C9465000C9465000C9465009C
:100050000C9465000C9465000C9465000C9465008C
:100060000C9465000C9465000C9465000C9465007C
:100070000C9465000C9465000C9465000C9465006C
:100080000C9465000C9465000C94650011241FBE4F
:10009000CFEFD0E4DEBFCDBF11E0A0E0B1E0ECE9EE
:1000A000F3E000E00BBF02C007900D92A231B10750
:1000B000D9F711E0A2E1B1E001C01D92A631B1076C
:1000C000E1F70E94A5010C94CC010C940000CF93A1
:1000D000DF9300D01F92CDB7DEB789837B836A831D
:1000E00089818A3031F48A819B81BC018DE00E9434
:1000F000670080EC90E0FC018081882F90E08072A6
:1001000099270097B1F386EC90E02981FC012083C8
:1001100080E090E00F900F900F90DF91CF910895C5
:10012000CF93DF93CDB7DEB7809114019091150185
:1001300082309105A9F18330910530F4009769F080
:100140008130910589F0D7C08330910509F457C0FB
:100150008430910509F4A5C0CEC081E090E0909371
:10016000150180931401C7C080E290E0FC0120815A
:1001700080911201882F90E0825F9E4FFC01808168
:10018000281739F482E090E09093150180931401D0
:10019000B2C081E090E09093150180931401ABC050
:1001A00080E290E0FC01208180911201882F90E094
:1001B000825F9E4FFC018081281739F482E090E035
:1001C000909315018093140119C080E290E0FC0126
:1001D0008081882361F483E090E0909315018093FF
:1001E0001401809112018F5F8093120107C081E09A
:1001F00090E090931501809314017DC07CC080E253
:1002000090E0FC018081882339F483E090E09093B2
:1002100015018093140144C080E290E0FC0120812C
:1002200080911201882F90E0825F9E4FFC018081B7
:100230002817B1F480911201833091F48091130159
:10024000882339F484E090E09093150180931401A1
:1002500027C081E090E0909315018093140120C0A5
:1002600080E290E0FC01208180911201882F90E0D3
:10027000825F9E4FFC018081281759F48091120102
:10028000833038F482E090E090931501809314015C
:1002900007C081E090E090931501809314012BC07A
:1002A0002AC080E290E0FC018081803839F481E04E
:1002B00090E090931501809314011CC080E290E0BF
:1002C000FC01208180911201882F90E0825F9E4F77
:1002D000FC018081281739F482E090E090931501A9
:1002E0008093140107C084E090E0909315018093FF
:1002F000140100C00000809114019091150182301A
:100300009105D9F08330910530F40097C1F0813028
:10031000910541F017C08330910599F08430910523
:1003200031F010C010921301109212010BC081E045
:10033000809313011092120105C0000003C0000059
:1003400001C00000DF91CF910895CF93DF93CDB727
:10035000DEB781E290E0FC01108282E290E02FEFB4
:10036000FC01208384E290E02FEFFC01208385E2F2
:1003700090E0FC011082109215011092140110926D
:100380001201109213010E94900085E290E02091EA
:0C0390001301FC012083F7CFF894FFCF8D
:10039C0000000002000000006700000000000401E3
:0203AC0002014C
:00000001FF
