:100000000C9456000C9475000C9475000C947500BB
:100010000C9475000C9475000C9475000C9475008C
:100020000C9475000C9475000C9475000C9475007C
:100030000C9475000C9475000C9475000C9475006C
:100040000C9475000C9475000C9475000C9475005C
:100050000C9475000C9475000C9475000C9475004C
:100060000C9475000C9475000C9475000C9475003C
:100070000C9475000C9475000C9475000C9475002C
:100080000C9475000C9475000C947500BA00C100B6
:10009000D500F700190134015C018401C801CD01CC
:1000A000D801D801D201D801D801D80111241FBE2E
:1000B000CFEFD0E4DEBFCDBF11E0A0E0B1E0E8E0DB
:1000C000F4E000E00BBF02C007900D92AE30B10724
:1000D000D9F711E0AEE0B1E001C01D92A031B10747
:1000E000E1F70E94DC010C9402020C940000CF9313
:1000F000DF9300D01F92CDB7DEB789837B836A83FD
:1001000089818A3031F48A819B81BC018DE00E9413
:10011000770080EC90E0FC018081882F90E0807275
:1001200099270097B1F386EC90E02981FC012083A8
:1001300080E090E00F900F900F90DF91CF910895A5
:10014000CF93DF93CDB7DEB780910E0190910F0171
:10015000CC01A0E0B0E040E050E027E030E0841BBC
:10016000950B2817390708F4FEC08A5B9F4FFC01E6
:100170000C94F90181E090E090930F0180930E01BF
:10018000F2C080E290E0FC018081843039F482E0AA
:1001900090E090930F0180930E01E5C081E090E024
:1001A00090930F0180930E01DEC080E290E0FC018D
:1001B0008081843039F482E090E090930F01809345
:1001C0000E0114C080E290E0FC018081882339F4A4
:1001D00083E090E090930F0180930E0107C081E0CF
:1001E00090E090930F0180930E01BDC0BCC080E2EF
:1001F00090E0FC018081882339F483E090E09093C3
:100200000F0180930E0114C080E290E0FC01808118
:10021000823039F484E090E090930F0180930E01D6
:1002200007C081E090E090930F0180930E019BC086
:100230009AC080E290E0FC018081823039F484E051
:1002400090E090930F0180930E010DC080E290E04A
:10025000FC018081882339F485E090E090930F01C0
:1002600080930E0180C07FC080E290E0FC0180811D
:10027000803839F481E090E090930F0180930E0173
:100280001AC080E290E0FC018081882339F485E087
:1002900090E090930F0180930E010DC080E290E0FA
:1002A000FC018081843039F486E090E090930F0166
:1002B00080930E0158C057C080E290E0FC0180811D
:1002C000843039F486E090E090930F0180930E0122
:1002D0001AC080E290E0FC018081882339F487E035
:1002E00090E090930F0180930E010DC080E290E0AA
:1002F000FC018081803839F481E090E090930F0117
:1003000080930E0130C02FC080E290E0FC0180811C
:10031000882339F487E090E090930F0180930E01D9
:1003200021C080E290E0FC018081823039F481E0DC
:1003300090E090930F0180930E0114C080E290E052
:10034000FC018081803839F481E090E090930F01C6
:1003500080930E0107C085E090E090930F01809399
:100360000E0100C0000080910E0190910F01CC01A0
:10037000A0E0B0E040E050E027E030E0841B950BC7
:1003800028173907B0F0825B9F4FFC010C94F901EC
:1003900085E290E0FC0110820CC085E290E0FC0157
:1003A000108207C085E290E021E0FC01208301C0BB
:1003B0000000DF91CF910895CF93DF93CDB7DEB7E3
:1003C00081E290E0FC01108282E290E02FEFFC01DC
:1003D000208384E290E02FEFFC01208385E290E00F
:1003E000FC01108210920F0110920E010E94A000D9
:1003F000FDCFEE0FFF1F0024001C0BBE0790F691EF
:08040000E02D0994F894FFCFF0
:0E04080000000002000000007700000000006D
:00000001FF
